{
  "_format": "hh-sol-artifact-1",
  "contractName": "MultiSigWallet",
  "sourceName": "contracts/MultiSigWallet.sol",
  "abi": [
    {
      "inputs": [
        {
          "internalType": "address[]",
          "name": "_owners",
          "type": "address[]"
        }
      ],
      "stateMutability": "payable",
      "type": "constructor"
    },
    {
      "anonymous": false,
      "inputs": [
        {
          "indexed": true,
          "internalType": "address",
          "name": "owner",
          "type": "address"
        },
        {
          "indexed": true,
          "internalType": "uint256",
          "name": "txIndex",
          "type": "uint256"
        }
      ],
      "name": "ConfirmTransaction",
      "type": "event"
    },
    {
      "anonymous": false,
      "inputs": [
        {
          "indexed": true,
          "internalType": "address",
          "name": "sender",
          "type": "address"
        },
        {
          "indexed": false,
          "internalType": "uint256",
          "name": "amount",
          "type": "uint256"
        },
        {
          "indexed": false,
          "internalType": "uint256",
          "name": "balance",
          "type": "uint256"
        }
      ],
      "name": "Deposit",
      "type": "event"
    },
    {
      "anonymous": false,
      "inputs": [
        {
          "indexed": true,
          "internalType": "address",
          "name": "owner",
          "type": "address"
        },
        {
          "indexed": true,
          "internalType": "uint256",
          "name": "txIndex",
          "type": "uint256"
        }
      ],
      "name": "ExecuteTransaction",
      "type": "event"
    },
    {
      "anonymous": false,
      "inputs": [
        {
          "indexed": true,
          "internalType": "address",
          "name": "owner",
          "type": "address"
        },
        {
          "indexed": true,
          "internalType": "uint256",
          "name": "txIndex",
          "type": "uint256"
        }
      ],
      "name": "RevokeConfirmation",
      "type": "event"
    },
    {
      "anonymous": false,
      "inputs": [
        {
          "indexed": true,
          "internalType": "address",
          "name": "owner",
          "type": "address"
        },
        {
          "indexed": true,
          "internalType": "uint256",
          "name": "txIndex",
          "type": "uint256"
        },
        {
          "indexed": true,
          "internalType": "address",
          "name": "to",
          "type": "address"
        },
        {
          "indexed": false,
          "internalType": "uint256",
          "name": "value",
          "type": "uint256"
        },
        {
          "indexed": false,
          "internalType": "bytes",
          "name": "data",
          "type": "bytes"
        }
      ],
      "name": "SubmitTransaction",
      "type": "event"
    },
    {
      "inputs": [
        {
          "internalType": "uint256",
          "name": "_txIndex",
          "type": "uint256"
        }
      ],
      "name": "confirmTransaction",
      "outputs": [],
      "stateMutability": "nonpayable",
      "type": "function"
    },
    {
      "inputs": [],
      "name": "deposit",
      "outputs": [],
      "stateMutability": "payable",
      "type": "function"
    },
    {
      "inputs": [
        {
          "internalType": "uint256",
          "name": "_txIndex",
          "type": "uint256"
        }
      ],
      "name": "executeTransaction",
      "outputs": [],
      "stateMutability": "nonpayable",
      "type": "function"
    },
    {
      "inputs": [],
      "name": "getOwners",
      "outputs": [
        {
          "internalType": "address[]",
          "name": "",
          "type": "address[]"
        }
      ],
      "stateMutability": "view",
      "type": "function"
    },
    {
      "inputs": [
        {
          "internalType": "uint256",
          "name": "_txIndex",
          "type": "uint256"
        }
      ],
      "name": "getTransaction",
      "outputs": [
        {
          "internalType": "address",
          "name": "to",
          "type": "address"
        },
        {
          "internalType": "uint256",
          "name": "value",
          "type": "uint256"
        },
        {
          "internalType": "bytes",
          "name": "data",
          "type": "bytes"
        },
        {
          "internalType": "bool",
          "name": "executed",
          "type": "bool"
        },
        {
          "internalType": "uint256",
          "name": "numConfirmations",
          "type": "uint256"
        }
      ],
      "stateMutability": "view",
      "type": "function"
    },
    {
      "inputs": [],
      "name": "getTransactionCount",
      "outputs": [
        {
          "internalType": "uint256",
          "name": "",
          "type": "uint256"
        }
      ],
      "stateMutability": "view",
      "type": "function"
    },
    {
      "inputs": [
        {
          "internalType": "uint256",
          "name": "",
          "type": "uint256"
        },
        {
          "internalType": "address",
          "name": "",
          "type": "address"
        }
      ],
      "name": "isConfirmed",
      "outputs": [
        {
          "internalType": "bool",
          "name": "",
          "type": "bool"
        }
      ],
      "stateMutability": "view",
      "type": "function"
    },
    {
      "inputs": [
        {
          "internalType": "address",
          "name": "",
          "type": "address"
        }
      ],
      "name": "isOwner",
      "outputs": [
        {
          "internalType": "bool",
          "name": "",
          "type": "bool"
        }
      ],
      "stateMutability": "view",
      "type": "function"
    },
    {
      "inputs": [],
      "name": "numConfirmationsRequired",
      "outputs": [
        {
          "internalType": "uint256",
          "name": "",
          "type": "uint256"
        }
      ],
      "stateMutability": "view",
      "type": "function"
    },
    {
      "inputs": [
        {
          "internalType": "uint256",
          "name": "",
          "type": "uint256"
        }
      ],
      "name": "owners",
      "outputs": [
        {
          "internalType": "address",
          "name": "",
          "type": "address"
        }
      ],
      "stateMutability": "view",
      "type": "function"
    },
    {
      "inputs": [
        {
          "internalType": "uint256",
          "name": "_txIndex",
          "type": "uint256"
        }
      ],
      "name": "revokeConfirmation",
      "outputs": [],
      "stateMutability": "nonpayable",
      "type": "function"
    },
    {
      "inputs": [
        {
          "internalType": "address",
          "name": "_to",
          "type": "address"
        },
        {
          "internalType": "uint256",
          "name": "_value",
          "type": "uint256"
        },
        {
          "internalType": "bytes",
          "name": "_data",
          "type": "bytes"
        }
      ],
      "name": "submitTransaction",
      "outputs": [],
      "stateMutability": "nonpayable",
      "type": "function"
    },
    {
      "inputs": [
        {
          "internalType": "uint256",
          "name": "",
          "type": "uint256"
        }
      ],
      "name": "transactions",
      "outputs": [
        {
          "internalType": "address",
          "name": "to",
          "type": "address"
        },
        {
          "internalType": "uint256",
          "name": "value",
          "type": "uint256"
        },
        {
          "internalType": "bytes",
          "name": "data",
          "type": "bytes"
        },
        {
          "internalType": "bool",
          "name": "executed",
          "type": "bool"
        },
        {
          "internalType": "uint256",
          "name": "numConfirmations",
          "type": "uint256"
        }
      ],
      "stateMutability": "view",
      "type": "function"
    },
    {
      "stateMutability": "payable",
      "type": "receive"
    }
  ],
  "bytecode": "0x6080604052604051620024a2380380620024a283398181016040528101906200002991906200048c565b600081511162000070576040517f08c379a000000000000000000000000000000000000000000000000000000000815260040162000067906200053e565b60405180910390fd5b60005b81518110156200027257600082828151811062000095576200009462000560565b5b60200260200101519050600073ffffffffffffffffffffffffffffffffffffffff168173ffffffffffffffffffffffffffffffffffffffff160362000111576040517f08c379a00000000000000000000000000000000000000000000000000000000081526004016200010890620005df565b60405180910390fd5b600160008273ffffffffffffffffffffffffffffffffffffffff1673ffffffffffffffffffffffffffffffffffffffff16815260200190815260200160002060009054906101000a900460ff1615620001a1576040517f08c379a0000000000000000000000000000000000000000000000000000000008152600401620001989062000651565b60405180910390fd5b60018060008373ffffffffffffffffffffffffffffffffffffffff1673ffffffffffffffffffffffffffffffffffffffff16815260200190815260200160002060006101000a81548160ff0219169083151502179055506000819080600181540180825580915050600190039060005260206000200160009091909190916101000a81548173ffffffffffffffffffffffffffffffffffffffff021916908373ffffffffffffffffffffffffffffffffffffffff1602179055505080806200026990620006ac565b91505062000073565b50600260018251620002859190620006f9565b62000291919062000763565b600281905550506200079b565b6000604051905090565b600080fd5b600080fd5b600080fd5b6000601f19601f8301169050919050565b7f4e487b7100000000000000000000000000000000000000000000000000000000600052604160045260246000fd5b6200030282620002b7565b810181811067ffffffffffffffff82111715620003245762000323620002c8565b5b80604052505050565b6000620003396200029e565b9050620003478282620002f7565b919050565b600067ffffffffffffffff8211156200036a5762000369620002c8565b5b602082029050602081019050919050565b600080fd5b600073ffffffffffffffffffffffffffffffffffffffff82169050919050565b6000620003ad8262000380565b9050919050565b620003bf81620003a0565b8114620003cb57600080fd5b50565b600081519050620003df81620003b4565b92915050565b6000620003fc620003f6846200034c565b6200032d565b905080838252602082019050602084028301858111156200042257620004216200037b565b5b835b818110156200044f57806200043a8882620003ce565b84526020840193505060208101905062000424565b5050509392505050565b600082601f830112620004715762000470620002b2565b5b815162000483848260208601620003e5565b91505092915050565b600060208284031215620004a557620004a4620002a8565b5b600082015167ffffffffffffffff811115620004c657620004c5620002ad565b5b620004d48482850162000459565b91505092915050565b600082825260208201905092915050565b7f6f776e6572732072657175697265640000000000000000000000000000000000600082015250565b600062000526600f83620004dd565b91506200053382620004ee565b602082019050919050565b60006020820190508181036000830152620005598162000517565b9050919050565b7f4e487b7100000000000000000000000000000000000000000000000000000000600052603260045260246000fd5b7f696e76616c6964206f776e657200000000000000000000000000000000000000600082015250565b6000620005c7600d83620004dd565b9150620005d4826200058f565b602082019050919050565b60006020820190508181036000830152620005fa81620005b8565b9050919050565b7f6f776e6572206e6f7420756e6971756500000000000000000000000000000000600082015250565b600062000639601083620004dd565b9150620006468262000601565b602082019050919050565b600060208201905081810360008301526200066c816200062a565b9050919050565b7f4e487b7100000000000000000000000000000000000000000000000000000000600052601160045260246000fd5b6000819050919050565b6000620006b982620006a2565b91507fffffffffffffffffffffffffffffffffffffffffffffffffffffffffffffffff8203620006ee57620006ed62000673565b5b600182019050919050565b60006200070682620006a2565b91506200071383620006a2565b92508282019050808211156200072e576200072d62000673565b5b92915050565b7f4e487b7100000000000000000000000000000000000000000000000000000000600052601260045260246000fd5b60006200077082620006a2565b91506200077d83620006a2565b92508262000790576200078f62000734565b5b828204905092915050565b611cf780620007ab6000396000f3fe6080604052600436106100c65760003560e01c80639ace38c21161007f578063c642747411610059578063c642747414610303578063d0549b851461032c578063d0e30db014610357578063ee22610b146103615761011d565b80639ace38c21461026e578063a0e67e2b146102af578063c01a8c84146102da5761011d565b8063025e7c271461012257806320ea8d861461015f5780632e7700f0146101885780632f54bf6e146101b357806333ea3dc8146101f057806380f59a65146102315761011d565b3661011d573373ffffffffffffffffffffffffffffffffffffffff167f90890809c654f11d6e72a28fa60149770a0d11ec6c92319d6ceb2bb0a4ea1a15344760405161011392919061110a565b60405180910390a2005b600080fd5b34801561012e57600080fd5b5061014960048036038101906101449190611173565b61038a565b60405161015691906111e1565b60405180910390f35b34801561016b57600080fd5b5061018660048036038101906101819190611173565b6103c9565b005b34801561019457600080fd5b5061019d6106a3565b6040516101aa91906111fc565b60405180910390f35b3480156101bf57600080fd5b506101da60048036038101906101d59190611243565b6106b0565b6040516101e7919061128b565b60405180910390f35b3480156101fc57600080fd5b5061021760048036038101906102129190611173565b6106d0565b604051610228959493929190611336565b60405180910390f35b34801561023d57600080fd5b5061025860048036038101906102539190611390565b6107e3565b604051610265919061128b565b60405180910390f35b34801561027a57600080fd5b5061029560048036038101906102909190611173565b610812565b6040516102a6959493929190611336565b60405180910390f35b3480156102bb57600080fd5b506102c461090d565b6040516102d1919061148e565b60405180910390f35b3480156102e657600080fd5b5061030160048036038101906102fc9190611173565b61099b565b005b34801561030f57600080fd5b5061032a600480360381019061032591906115e5565b610c78565b005b34801561033857600080fd5b50610341610e7b565b60405161034e91906111fc565b60405180910390f35b61035f610e81565b005b34801561036d57600080fd5b5061038860048036038101906103839190611173565b610ed3565b005b6000818154811061039a57600080fd5b906000526020600020016000915054906101000a900473ffffffffffffffffffffffffffffffffffffffff1681565b600160003373ffffffffffffffffffffffffffffffffffffffff1673ffffffffffffffffffffffffffffffffffffffff16815260200190815260200160002060009054906101000a900460ff16610455576040517f08c379a000000000000000000000000000000000000000000000000000000000815260040161044c906116b1565b60405180910390fd5b80600480549050811061049d576040517f08c379a00000000000000000000000000000000000000000000000000000000081526004016104949061171d565b60405180910390fd5b81600481815481106104b2576104b161173d565b5b906000526020600020906005020160030160009054906101000a900460ff1615610511576040517f08c379a0000000000000000000000000000000000000000000000000000000008152600401610508906117b8565b60405180910390fd5b6000600484815481106105275761052661173d565b5b906000526020600020906005020190506003600085815260200190815260200160002060003373ffffffffffffffffffffffffffffffffffffffff1673ffffffffffffffffffffffffffffffffffffffff16815260200190815260200160002060009054906101000a900460ff166105d4576040517f08c379a00000000000000000000000000000000000000000000000000000000081526004016105cb90611824565b60405180910390fd5b60018160040160008282546105e99190611873565b9250508190555060006003600086815260200190815260200160002060003373ffffffffffffffffffffffffffffffffffffffff1673ffffffffffffffffffffffffffffffffffffffff16815260200190815260200160002060006101000a81548160ff021916908315150217905550833373ffffffffffffffffffffffffffffffffffffffff167ff0dca620e2e81f7841d07bcc105e1704fb01475b278a9d4c236e1c62945edd5560405160405180910390a350505050565b6000600480549050905090565b60016020528060005260406000206000915054906101000a900460ff1681565b60008060606000806000600487815481106106ee576106ed61173d565b5b906000526020600020906005020190508060000160009054906101000a900473ffffffffffffffffffffffffffffffffffffffff168160010154826002018360030160009054906101000a900460ff16846004015482805461074f906118d6565b80601f016020809104026020016040519081016040528092919081815260200182805461077b906118d6565b80156107c85780601f1061079d576101008083540402835291602001916107c8565b820191906000526020600020905b8154815290600101906020018083116107ab57829003601f168201915b50505050509250955095509550955095505091939590929450565b60036020528160005260406000206020528060005260406000206000915091509054906101000a900460ff1681565b6004818154811061082257600080fd5b90600052602060002090600502016000915090508060000160009054906101000a900473ffffffffffffffffffffffffffffffffffffffff1690806001015490806002018054610871906118d6565b80601f016020809104026020016040519081016040528092919081815260200182805461089d906118d6565b80156108ea5780601f106108bf576101008083540402835291602001916108ea565b820191906000526020600020905b8154815290600101906020018083116108cd57829003601f168201915b5050505050908060030160009054906101000a900460ff16908060040154905085565b6060600080548060200260200160405190810160405280929190818152602001828054801561099157602002820191906000526020600020905b8160009054906101000a900473ffffffffffffffffffffffffffffffffffffffff1673ffffffffffffffffffffffffffffffffffffffff1681526020019060010190808311610947575b5050505050905090565b600160003373ffffffffffffffffffffffffffffffffffffffff1673ffffffffffffffffffffffffffffffffffffffff16815260200190815260200160002060009054906101000a900460ff16610a27576040517f08c379a0000000000000000000000000000000000000000000000000000000008152600401610a1e906116b1565b60405180910390fd5b806004805490508110610a6f576040517f08c379a0000000000000000000000000000000000000000000000000000000008152600401610a669061171d565b60405180910390fd5b8160048181548110610a8457610a8361173d565b5b906000526020600020906005020160030160009054906101000a900460ff1615610ae3576040517f08c379a0000000000000000000000000000000000000000000000000000000008152600401610ada906117b8565b60405180910390fd5b826003600082815260200190815260200160002060003373ffffffffffffffffffffffffffffffffffffffff1673ffffffffffffffffffffffffffffffffffffffff16815260200190815260200160002060009054906101000a900460ff1615610b82576040517f08c379a0000000000000000000000000000000000000000000000000000000008152600401610b7990611953565b60405180910390fd5b600060048581548110610b9857610b9761173d565b5b906000526020600020906005020190506001816004016000828254610bbd9190611973565b9250508190555060016003600087815260200190815260200160002060003373ffffffffffffffffffffffffffffffffffffffff1673ffffffffffffffffffffffffffffffffffffffff16815260200190815260200160002060006101000a81548160ff021916908315150217905550843373ffffffffffffffffffffffffffffffffffffffff167f5cbe105e36805f7820e291f799d5794ff948af2a5f664e580382defb6339004160405160405180910390a35050505050565b600160003373ffffffffffffffffffffffffffffffffffffffff1673ffffffffffffffffffffffffffffffffffffffff16815260200190815260200160002060009054906101000a900460ff16610d04576040517f08c379a0000000000000000000000000000000000000000000000000000000008152600401610cfb906116b1565b60405180910390fd5b6000600480549050905060046040518060a001604052808673ffffffffffffffffffffffffffffffffffffffff1681526020018581526020018481526020016000151581526020016000815250908060018154018082558091505060019003906000526020600020906005020160009091909190915060008201518160000160006101000a81548173ffffffffffffffffffffffffffffffffffffffff021916908373ffffffffffffffffffffffffffffffffffffffff160217905550602082015181600101556040820151816002019081610de09190611b53565b5060608201518160030160006101000a81548160ff0219169083151502179055506080820151816004015550508373ffffffffffffffffffffffffffffffffffffffff16813373ffffffffffffffffffffffffffffffffffffffff167fd5a05bf70715ad82a09a756320284a1b54c9ff74cd0f8cce6219e79b563fe59d8686604051610e6d929190611c25565b60405180910390a450505050565b60025481565b3373ffffffffffffffffffffffffffffffffffffffff167f90890809c654f11d6e72a28fa60149770a0d11ec6c92319d6ceb2bb0a4ea1a153447604051610ec992919061110a565b60405180910390a2565b600160003373ffffffffffffffffffffffffffffffffffffffff1673ffffffffffffffffffffffffffffffffffffffff16815260200190815260200160002060009054906101000a900460ff16610f5f576040517f08c379a0000000000000000000000000000000000000000000000000000000008152600401610f56906116b1565b60405180910390fd5b806004805490508110610fa7576040517f08c379a0000000000000000000000000000000000000000000000000000000008152600401610f9e9061171d565b60405180910390fd5b8160048181548110610fbc57610fbb61173d565b5b906000526020600020906005020160030160009054906101000a900460ff161561101b576040517f08c379a0000000000000000000000000000000000000000000000000000000008152600401611012906117b8565b60405180910390fd5b6000600484815481106110315761103061173d565b5b906000526020600020906005020190506002548160040154101561108a576040517f08c379a000000000000000000000000000000000000000000000000000000000815260040161108190611ca1565b60405180910390fd5b60018160030160006101000a81548160ff021916908315150217905550833373ffffffffffffffffffffffffffffffffffffffff167f5445f318f4f5fcfb66592e68e0cc5822aa15664039bd5f0ffde24c5a8142b1ac60405160405180910390a350505050565b6000819050919050565b611104816110f1565b82525050565b600060408201905061111f60008301856110fb565b61112c60208301846110fb565b9392505050565b6000604051905090565b600080fd5b600080fd5b611150816110f1565b811461115b57600080fd5b50565b60008135905061116d81611147565b92915050565b6000602082840312156111895761118861113d565b5b60006111978482850161115e565b91505092915050565b600073ffffffffffffffffffffffffffffffffffffffff82169050919050565b60006111cb826111a0565b9050919050565b6111db816111c0565b82525050565b60006020820190506111f660008301846111d2565b92915050565b600060208201905061121160008301846110fb565b92915050565b611220816111c0565b811461122b57600080fd5b50565b60008135905061123d81611217565b92915050565b6000602082840312156112595761125861113d565b5b60006112678482850161122e565b91505092915050565b60008115159050919050565b61128581611270565b82525050565b60006020820190506112a0600083018461127c565b92915050565b600081519050919050565b600082825260208201905092915050565b60005b838110156112e05780820151818401526020810190506112c5565b60008484015250505050565b6000601f19601f8301169050919050565b6000611308826112a6565b61131281856112b1565b93506113228185602086016112c2565b61132b816112ec565b840191505092915050565b600060a08201905061134b60008301886111d2565b61135860208301876110fb565b818103604083015261136a81866112fd565b9050611379606083018561127c565b61138660808301846110fb565b9695505050505050565b600080604083850312156113a7576113a661113d565b5b60006113b58582860161115e565b92505060206113c68582860161122e565b9150509250929050565b600081519050919050565b600082825260208201905092915050565b6000819050602082019050919050565b611405816111c0565b82525050565b600061141783836113fc565b60208301905092915050565b6000602082019050919050565b600061143b826113d0565b61144581856113db565b9350611450836113ec565b8060005b83811015611481578151611468888261140b565b975061147383611423565b925050600181019050611454565b5085935050505092915050565b600060208201905081810360008301526114a88184611430565b905092915050565b600080fd5b600080fd5b7f4e487b7100000000000000000000000000000000000000000000000000000000600052604160045260246000fd5b6114f2826112ec565b810181811067ffffffffffffffff82111715611511576115106114ba565b5b80604052505050565b6000611524611133565b905061153082826114e9565b919050565b600067ffffffffffffffff8211156115505761154f6114ba565b5b611559826112ec565b9050602081019050919050565b82818337600083830152505050565b600061158861158384611535565b61151a565b9050828152602081018484840111156115a4576115a36114b5565b5b6115af848285611566565b509392505050565b600082601f8301126115cc576115cb6114b0565b5b81356115dc848260208601611575565b91505092915050565b6000806000606084860312156115fe576115fd61113d565b5b600061160c8682870161122e565b935050602061161d8682870161115e565b925050604084013567ffffffffffffffff81111561163e5761163d611142565b5b61164a868287016115b7565b9150509250925092565b600082825260208201905092915050565b7f6e6f74206f776e65720000000000000000000000000000000000000000000000600082015250565b600061169b600983611654565b91506116a682611665565b602082019050919050565b600060208201905081810360008301526116ca8161168e565b9050919050565b7f747820646f6573206e6f74206578697374000000000000000000000000000000600082015250565b6000611707601183611654565b9150611712826116d1565b602082019050919050565b60006020820190508181036000830152611736816116fa565b9050919050565b7f4e487b7100000000000000000000000000000000000000000000000000000000600052603260045260246000fd5b7f747820616c726561647920657865637574656400000000000000000000000000600082015250565b60006117a2601383611654565b91506117ad8261176c565b602082019050919050565b600060208201905081810360008301526117d181611795565b9050919050565b7f7478206e6f7420636f6e6669726d656400000000000000000000000000000000600082015250565b600061180e601083611654565b9150611819826117d8565b602082019050919050565b6000602082019050818103600083015261183d81611801565b9050919050565b7f4e487b7100000000000000000000000000000000000000000000000000000000600052601160045260246000fd5b600061187e826110f1565b9150611889836110f1565b92508282039050818111156118a1576118a0611844565b5b92915050565b7f4e487b7100000000000000000000000000000000000000000000000000000000600052602260045260246000fd5b600060028204905060018216806118ee57607f821691505b602082108103611901576119006118a7565b5b50919050565b7f747820616c726561647920636f6e6669726d6564000000000000000000000000600082015250565b600061193d601483611654565b915061194882611907565b602082019050919050565b6000602082019050818103600083015261196c81611930565b9050919050565b600061197e826110f1565b9150611989836110f1565b92508282019050808211156119a1576119a0611844565b5b92915050565b60008190508160005260206000209050919050565b60006020601f8301049050919050565b600082821b905092915050565b600060088302611a097fffffffffffffffffffffffffffffffffffffffffffffffffffffffffffffffff826119cc565b611a1386836119cc565b95508019841693508086168417925050509392505050565b6000819050919050565b6000611a50611a4b611a46846110f1565b611a2b565b6110f1565b9050919050565b6000819050919050565b611a6a83611a35565b611a7e611a7682611a57565b8484546119d9565b825550505050565b600090565b611a93611a86565b611a9e818484611a61565b505050565b5b81811015611ac257611ab7600082611a8b565b600181019050611aa4565b5050565b601f821115611b0757611ad8816119a7565b611ae1846119bc565b81016020851015611af0578190505b611b04611afc856119bc565b830182611aa3565b50505b505050565b600082821c905092915050565b6000611b2a60001984600802611b0c565b1980831691505092915050565b6000611b438383611b19565b9150826002028217905092915050565b611b5c826112a6565b67ffffffffffffffff811115611b7557611b746114ba565b5b611b7f82546118d6565b611b8a828285611ac6565b600060209050601f831160018114611bbd5760008415611bab578287015190505b611bb58582611b37565b865550611c1d565b601f198416611bcb866119a7565b60005b82811015611bf357848901518255600182019150602085019450602081019050611bce565b86831015611c105784890151611c0c601f891682611b19565b8355505b6001600288020188555050505b505050505050565b6000604082019050611c3a60008301856110fb565b8181036020830152611c4c81846112fd565b90509392505050565b7f63616e6e6f742065786563757465207478000000000000000000000000000000600082015250565b6000611c8b601183611654565b9150611c9682611c55565b602082019050919050565b60006020820190508181036000830152611cba81611c7e565b905091905056fea26469706673582212201dd32139846ff98057a8b2fccace6f34659ed2f98551f5e0294c0dd0cc7d3a4f64736f6c63430008110033",
  "linkReferences": {},
  "deployedLinkReferences": {}
}